:100000000C94AB000C94D3000C94D3000C94D3004C
:100010000C94D3000C94D3000C94D3000C94D30014
:100020000C94D3000C9459030C94D3000C94D3007B
:100030000C94D3000C94D3000C94D3000C94D300F4
:100040000C94B7020C94D3000C9427030C94010376
:100050000C94D3000C94D3000C94D3000C94D300D4
:100060000C94D3000C94D30000000000250028005D
:100070002B0000000000240027002A0004040404D0
:100080000404040402020202020203030303030342
:10009000010204081020408001020408102001021F
:1000A00004081020000000080002010000030407FB
:1000B0000000000000000000557064617465546128
:1000C000736B28292063616C6C6564206279205011
:1000D0006572696F6469635461736B20436C61730B
:1000E0007300506572696F6469635461736B206457
:1000F000657374727563746F722063616C6C656490
:10010000005468697320436C617373207573657361
:100110002054696D65723220746F2063616C6C20AD
:1001200061207573657220676976656E20746173EE
:100130006B20706572696F646963616C6C79202CE7
:10014000204E6F206E65656420746F20506F6C6C5C
:1001500000009E03A40411241FBECFEFD8E0DEBF31
:10016000CDBF11E0A0E0B1E0E0E8F9E002C0059009
:100170000D92A631B107D9F721E0A6E1B1E001C0A7
:100180001D92AA3CB207E1F710E0CAEAD0E004C031
:100190002197FE010E94A804C93AD107C9F70E941D
:1001A000DB030C94B3040C940000CF92DF92EF9227
:1001B000FF920F931F93CF93DF936C017A018B0112
:1001C000C0E0D0E0CE15DF0589F0D8016D918D013A
:1001D000D601ED91FC910190F081E02DC6010995C9
:1001E000892B11F47E0102C02196ECCFC701DF916B
:1001F000CF911F910F91FF90EF90DF90CF900895D6
:100200000F931F93CF93DF938C01C0E0D0E0F801F0
:10021000EC0FFD1F6491662371F0E0911F01F091D6
:1002200020010190F081E02D8FE191E00995892B6B
:1002300011F02196ECCF42E050E062E171E08FE1F5
:1002400091E00E94D5008C0F9D1FDF91CF911F91EF
:100250000F910895089580E090E00895FC01538D7A
:10026000448D252F30E0842F90E0821B930B541790
:1002700010F0CF96089501970895FC01918D828D1D
:10028000981761F0828DDF01A80FB11D5D968C91EA
:10029000928D9F5F9F73928F90E008958FEF9FEFF5
:1002A0000895FC01918D828D981731F0828DE80FB1
:1002B000F11D858D90E008958FEF9FEF0895FC016B
:1002C000918D228D892F90E0805C9F4F821B910938
:1002D0008F73992708958FE191E00E945F0121E0DB
:1002E000892B09F420E0822F0895FC01848DDF0121
:1002F000A80FB11DA35ABF4F2C91848D90E0019699
:100300008F739927848FA689B7892C93A089B18987
:100310008C9180648C93938D848D981306C0028891
:10032000F389E02D80818F7D80830895EF92FF9285
:100330000F931F93CF93DF93EC0181E0888F9B8D08
:100340008C8D981305C0E889F989808185FD24C0CA
:10035000F62E0B8D10E00F5F1F4F0F731127E02E4D
:100360008C8DE8120CC00FB607FCFACFE889F9892A
:10037000808185FFF5CFCE010E947501F1CF8B8D75
:10038000FE01E80FF11DE35AFF4FF0820B8FEA895F
:10039000FB898081806207C0EE89FF896083E889DC
:1003A000F98980818064808381E090E0DF91CF9142
:1003B0001F910F91FF90EF900895CF93DF93EC0181
:1003C000888D8823C9F0EA89FB89808185FD05C075
:1003D000A889B9898C9186FD0FC00FB607FCF5CFAF
:1003E000808185FFF2CFA889B9898C9185FFEDCFF7
:1003F000CE010E947501E7CFDF91CF91089580E093
:1004000090E0892B29F00E946B0181110C9400006F
:100410000895CF93DF9388EB90E00E9400014AE9B2
:1004200050E0FA01649186E890E0FC0124912223D7
:1004300099F030E0220F331FF901EE58FF4FA591DC
:10044000B49128593F4FF901C591D4912FB7F89431
:100450003C91632B6C932FBFEEEAF0E024912330A4
:1004600019F150F42130D1F02230E1F584B58062E9
:1004700084BD80E888BD76C0273011F1283049F16D
:10048000243081F58091800080628093800080E834
:1004900090E090938B0080938A0064C084B580685C
:1004A00084BD80E887BD5EC08091800080688093B5
:1004B000800080E890E0909389008093880052C08B
:1004C0008091B00080688093B00080E88093B30092
:1004D00049C08091B00080628093B00080E8809332
:1004E000B40040C0EEEAF0E02491FA014491FC012E
:1004F00094919923B9F1222339F1233091F038F402
:100500002130A9F0223001F584B58F7D12C027304B
:1005100091F02830A1F02430B9F4809180008F7DD3
:1005200003C0809180008F77809380000DC084B5D8
:100530008F7784BD09C08091B0008F7703C0809110
:10054000B0008F7D8093B000E92FF0E0EE0FFF1F29
:10055000E859FF4FA591B4918FB7F8949C91492B1E
:100560004C938FBFDF91CF9108950E94AE041F92EC
:100570000F920FB60F9211242F933F938F939F9357
:10058000AF93BF9380911B0190911C01A0911D011D
:10059000B0911E0130911A0123E0230F2D3720F472
:1005A0000196A11DB11D05C026E8230F0296A11DCD
:1005B000B11D20931A0180931B0190931C01A093FD
:1005C0001D01B0931E018091160190911701A09119
:1005D0001801B09119010196A11DB11D809316015A
:1005E00090931701A0931801B0931901BF91AF9197
:1005F0009F918F913F912F910F900FBE0F901F9061
:1006000018951F920F920FB60F9211242F933F93BC
:100610004F935F936F937F938F939F93AF93BF930A
:10062000EF93FF938FE191E00E947501FF91EF91AD
:10063000BF91AF919F918F917F916F915F914F91FA
:100640003F912F910F900FBE0F901F9018951F9202
:100650000F920FB60F9211242F938F939F93EF93C6
:10066000FF93E0912F01F09130018081E0913501FD
:10067000F091360182FD12C09081809138018F5F28
:100680008F7320913901821751F0E0913801F0E029
:10069000E15EFE4F958F8093380101C08081FF910C
:1006A000EF919F918F912F910F900FBE0F901F9000
:1006B00018951F920F920FB60F9211242F933F930C
:1006C0004F935F936F937F938F939F93AF93BF935A
:1006D000EF93FF93E091BC01F091BD018081809385
:1006E000B20086819781A085B1850196A11DB11DBB
:1006F00086839783A087B187428153816481758106
:1007000084179507A607B70740F016821782108650
:1007100011860284F385E02D0995FF91EF91BF9139
:10072000AF919F918F917F916F915F914F913F9189
:100730002F910F900FBE0F901F901895EFE1F1E0F1
:100740001382128288EE93E0A0E0B0E08483958368
:10075000A683B78384E091E09183808385EC90E069
:100760009587848784EC90E09787868780EC90E07B
:10077000918B808B81EC90E0938B828B82EC90E06C
:10078000958B848B86EC90E0978B868B118E128EE6
:10079000138E148EEEEBF1E0F093BD01E093BC01FB
:1007A000118210821282138214821582168217829D
:1007B000108611860895789484B5826084BD84B5CE
:1007C000816084BD85B5826085BD85B5816085BD4C
:1007D00080916E00816080936E0010928100809104
:1007E000810082608093810080918100816080938C
:1007F0008100809180008160809380008091B100B1
:1008000084608093B1008091B00081608093B000DB
:1008100080917A00846080937A0080917A0082606F
:1008200080937A0080917A00816080937A00809131
:100830007A00806880937A001092C100E0912F01C5
:10084000F091300182E08083E0912B01F0912C0146
:100850001082E0912D01F0912E018FEC8083109297
:100860003701E0913301F0913401C6E0C083E0919B
:100870003101F0913201808180618083E09131010A
:10088000F0913201808188608083E0913101F091A4
:100890003201808180688083E0913101F0913201E2
:1008A00080818F7D808381E091E00E94000189E05A
:1008B00092E09093C9018093C80188EB9BE0A0E08F
:1008C000B0E08093C0019093C101A093C201B093A6
:1008D000C301809170008E7F809370008091B00082
:1008E0008C7F8093B0008091B100877F8093B100AE
:1008F0008091B6008F7D8093B600809170008D7FCF
:10090000809370008091B10084608093B1008091E9
:10091000B1008C7F8093B10086E090E09093BF019E
:100920008093BE011092C4011092C5011092C601BD
:100930001092C701C093B2008091700081608093D3
:1009400070000E94FF01FDCF82EE90E00C94000148
:10095000EE0FFF1F0590F491E02D099481E090E0E7
:10096000F8940C94B30410E0CAEAD0E004C0FE018D
:100970000E94A8042196CB3AD107C9F7F894FFCF7B
:10098000000000009601D5002E01DD015F013D0150
:0609900051010D0A0000F8
:00000001FF
