:100000000C945E000C9486000C9486000C94860080
:100010000C9486000C9486000C9486000C94860048
:100020000C9486000C9486000C9486000C94860038
:100030000C9486000C9486000C9486000C94860028
:100040000C9422020C9486000C948F040C94C1042E
:100050000C9486000C9486000C9486000C94860008
:100060000C9486000C948600000000080002010039
:100070000003040700000000000000000102040863
:100080001020408001020408102001020408102002
:10009000040404040404040402020202020203032E
:1000A0000303030300000000250028002B000000CC
:1000B0000000240027002A00B600F10411241FBE0E
:1000C000CFEFD8E0DEBFCDBF11E0A0E0B1E0ECE5BE
:1000D000FBE002C005900D92A632B107D9F721E0EE
:1000E000A6E2B1E001C01D92A43EB207E1F710E024
:1000F000CCEBD0E004C02297FE010E94A805C83BCB
:10010000D107C9F70E9475050C94AC050C9400004A
:10011000CF92EF920F93CF93DF93EC0182E0C82E42
:1001200093E0E92E04E025E04BE06CE0CE010E9474
:10013000FC0120E042E060E1CE01DF91CF910F9120
:10014000EF90CF900C945E0160E071E00C9472052A
:1001500026E040E855E260E070E087E491E00E942C
:100160002D0486E291E00C94A400089586E291E0CB
:100170000C948800CF93DF93EC0160E08E810E94A5
:10018000140381E090E00E946C0261E08E810E9485
:10019000140381E090E00E946C0260E08E810E9476
:1001A000140384E690E0DF91CF910C946C02EF92FF
:1001B000FF920F931F93CF93DF938C01C0E0D0E0A9
:1001C000E62EF12CB7010C2E02C0759567950A94A6
:1001D000E2F76170F801EC0FFD1F87810E941403A4
:1001E0002196C430D10571F7C801DF91CF911F91DD
:1001F0000F91FF90EF900C94BA00EF92FF920F9343
:100200001F93CF93DF938C01C0E0D0E0E62EF12C5A
:10021000B7010C2E02C0759567950A94E2F76170DC
:10022000F801EC0FFD1F87810E9414032196C8304E
:10023000D10571F7C801DF91CF911F910F91FF9008
:10024000EF900C94BA001F93CF93DF93EC01162F1D
:10025000642F8C810E9414038D818F3F19F060E020
:100260000E9414038F85612F84FF06C0CE01DF91A9
:10027000CF911F910C94FD0070E084E07595679517
:100280008A95E1F7CE010E94D700612FCE01DF9160
:10029000CF911F910C94D70040E00C94230161E0B2
:1002A0000E944C0180ED97E00C946C02FC01608987
:1002B000262F2460208B6C600C944C010F931F93AD
:1002C000CF93DF93EC01423018F08F8588608F87E1
:1002D0004B8B1C8A80E48D8B6E8B70E0605C7F4F53
:1002E0006F8B222329F0413019F48F8584608F872A
:1002F00061E08C810E94DB028D818F3F19F061E00B
:100300000E94DB0261E08E810E94DB0200E010E0CF
:100310008F8584FF03C088E090E002C084E090E015
:100320000817190754F4FE01E00FF11F61E08781FF
:100330000E94DB020F5F1F4FEBCF80E593EC0E9422
:100340006C0260E08C810E94140360E08E810E9448
:1003500014038D818F3F19F060E00E9414036F85B4
:1003600064FD1DC063E0CE010E94D70084E991E1E5
:100370000E946C0263E0CE010E94D70084E991E103
:100380000E946C0263E0CE010E94D70086E990E0F3
:100390000E946C0262E0CE010E94D70016C060622B
:1003A000CE010E944C0184E991E10E946C026F85AC
:1003B0006062CE010E944C0186E990E00E946C02CE
:1003C0006F856062CE010E944C016F856062CE0134
:1003D0000E944C0184E0888BCE010E945601CE0120
:1003E0000E944F0182E0898B66E0CE01DF91CF91C0
:1003F0001F910F910C944C01CF92EF920F93FC013F
:100400001382128282E191E09183808364838FEF73
:100410008583468327830087E186C28613861486F8
:1004200015861686178620E041E060E1CF010F9126
:10043000EF90CF900C945E0141E00E94230181E097
:1004400090E008951F920F920FB60F9211242F93F0
:100450003F938F939F93AF93BF9380913F01909170
:100460004001A0914101B091420130913E0123E051
:10047000230F2D3720F40196A11DB11D05C026E8DC
:10048000230F0296A11DB11D20933E0180933F01D1
:1004900090934001A0934101B093420180914301A8
:1004A00090914401A0914501B09146010196A11D92
:1004B000B11D8093430190934401A0934501B093F3
:1004C0004601BF91AF919F918F913F912F910F90D6
:1004D0000FBE0F901F9018958230910538F0880F4D
:1004E000991F880F991F05970197F1F70895789440
:1004F00084B5826084BD84B5816084BD85B5826029
:1005000085BD85B5816085BDEEE6F0E080818160C6
:100510008083E1E8F0E010828081826080838081C6
:1005200081608083E0E8F0E0808181608083E1EB9E
:10053000F0E0808184608083E0EBF0E08081816086
:100540008083EAE7F0E0808184608083808182603C
:100550008083808181608083808180688083109225
:10056000C1000895833081F028F4813099F0823001
:10057000A1F008958730A9F08830B9F08430D1F423
:10058000809180008F7D03C0809180008F77809361
:100590008000089584B58F7702C084B58F7D84BDB7
:1005A00008958091B0008F7703C08091B0008F7D57
:1005B0008093B0000895CF93DF9390E0FC01E4585E
:1005C000FF4F2491FC01E057FF4F8491882349F1AC
:1005D00090E0880F991FFC01E255FF4FA591B4915F
:1005E0008C559F4FFC01C591D4919FB7611108C0F4
:1005F000F8948C91209582238C93888182230AC061
:10060000623051F4F8948C91322F309583238C937F
:100610008881822B888304C0F8948C91822B8C93E0
:100620009FBFDF91CF9108950F931F93CF93DF93D7
:100630001F92CDB7DEB7282F30E0F901E859FF4F00
:100640008491F901E458FF4F1491F901E057FF4FED
:1006500004910023C9F0882321F069830E94B2022B
:100660006981E02FF0E0EE0FFF1FEC55FF4FA591E1
:10067000B4919FB7F8948C91611103C010958123B8
:1006800001C0812B8C939FBF0F90DF91CF911F9161
:100690000F910895FC01818D228D90E0805C9F4F29
:1006A000821B91098F7399270895FC01918D828D8A
:1006B000981731F0828DE80FF11D858D90E0089537
:1006C0008FEF9FEF0895FC01918D828D981761F057
:1006D000828DDF01A80FB11D5D968C91928D9F5F79
:1006E0009F73928F90E008958FEF9FEF089587EEAC
:1006F00094E0892B49F080E090E0892B29F00E945A
:10070000E70481110C9400000895FC01848DDF0141
:10071000A80FB11DA35ABF4F2C91848D90E0019674
:100720008F739927848FA689B7892C93A089B18963
:100730008C9180648C93938D848D981306C002886D
:10074000F389E02D80818F7D80830895CF93DF939F
:10075000EC01888D8823C9F0EA89FB89808185FDB9
:1007600005C0A889B9898C9186FD0FC00FB607FC1A
:10077000F5CF808185FFF2CFA889B9898C9185FF5B
:10078000EDCFCE010E948503E7CFDF91CF91089591
:10079000CF92DF92FF920F931F93CF93DF931F921D
:1007A000CDB7DEB76C0181E0D60158968C9358978F
:1007B0005B969C915B975C968C915C97981307C0B5
:1007C0005096ED91FC915197808185FD2EC0F601E8
:1007D000038D10E00F5F1F4F0F731127F02EF601EE
:1007E000848DF81211C00FB607FCF9CFD6015096D0
:1007F000ED91FC915197808185FFF1CFC60169830E
:100800000E9485036981EBCF838DE80FF11DE35AC8
:10081000FF4F6083D6015B960C935B975296ED91E8
:10082000FC915397808180620CC0D6015696ED9161
:10083000FC91579760835096ED91FC915197808180
:100840008064808381E090E00F90DF91CF911F91D1
:100850000F91FF90DF90CF900895BF92CF92DF92DB
:10086000EF92FF92CF93DF93EC016A017B01B22EEE
:10087000E889F98982E08083411581EE5807610596
:100880007105A1F060E079E08DE390E0A7019601A9
:100890000E94840521503109410951095695479517
:1008A00037952795211580E1380798F0E889F9896F
:1008B000108260E874E88EE190E0A70196010E9442
:1008C00084052150310941095109569547953795BD
:1008D0002795EC85FD853083EE85FF852083188E76
:1008E000EC89FD89B082EA89FB89808180618083FF
:1008F000EA89FB89808188608083EA89FB8980811D
:1009000080688083EA89FB8980818F7D8083DF9185
:10091000CF91FF90EF90DF90CF90BF9008951F92FE
:100920000F920FB60F9211242F938F939F93EF93F3
:10093000FF93E0915701F09158018081E0915D01B2
:10094000F0915E0182FD12C09081809160018F5F05
:100950008F7320916101821751F0E0916001F0E006
:10096000E95BFE4F958F8093600101C08081FF910C
:10097000EF919F918F912F910F900FBE0F901F902D
:1009800018951F920F920FB60F9211242F933F9339
:100990004F935F936F937F938F939F93AF93BF9387
:1009A000EF93FF9387E491E00E948503FF91EF911D
:1009B000BF91AF919F918F917F916F915F914F9177
:1009C0003F912F910F900FBE0F901F90189587E4C5
:1009D00091E00E944A0321E0892B09F420E0822F54
:1009E000089510924A011092490188EE93E0A0E028
:1009F000B0E080934B0190934C01A0934D01B093D4
:100A00004E018AE191E0909348018093470185EC83
:100A100090E0909354018093530184EC90E0909384
:100A200056018093550180EC90E09093580180939B
:100A3000570181EC90E090935A018093590182EC28
:100A400090E090935C0180935B0186EC90E0909342
:100A50005E0180935D01109260011092610110921D
:100A60006201109263010895CF92DF92EF92FF929C
:100A70000F931F93CF93DF937C016A01EB0100E09A
:100A800010E00C151D0571F06991D701ED91FC91F5
:100A90000190F081E02DC7010995892B19F00F5FB6
:100AA0001F4FEFCFC801DF91CF911F910F91FF90A2
:100AB000EF90DF90CF9008956115710581F0DB0113
:100AC0000D900020E9F7AD0141505109461B570B2D
:100AD000DC01ED91FC910280F381E02D099480E02E
:100AE00090E008950C945C0508950E9477020E949E
:100AF00074050E94A800C7E7D3E00E94B5002097C4
:100B0000E1F30E947703F9CFA1E21A2EAA1BBB1BC7
:100B1000FD010DC0AA1FBB1FEE1FFF1FA217B307C9
:100B2000E407F50720F0A21BB30BE40BF50B661FDF
:100B3000771F881F991F1A9469F7609570958095A3
:100B400090959B01AC01BD01CF010895EE0FFF1FF1
:0C0B50000590F491E02D0994F894FFCF7B
:100B5C0068656C6C6F2C20776F726C6421000000E0
:100B6C0000001C02340500000000C80334054A03D1
:060B7C0063035503A6030C
:107E0000112484B714BE81FFF0D085E080938100F7
:107E100082E08093C00088E18093C10086E0809377
:107E2000C20080E18093C4008EE0C9D0259A86E02C
:107E300020E33CEF91E0309385002093840096BBD3
:107E4000B09BFECF1D9AA8958150A9F7CC24DD24C4
:107E500088248394B5E0AB2EA1E19A2EF3E0BF2EE7
:107E6000A2D0813461F49FD0082FAFD0023811F036
:107E7000013811F484E001C083E08DD089C08234E0
:107E800011F484E103C0853419F485E0A6D080C0E4
:107E9000853579F488D0E82EFF2485D0082F10E0AE
:107EA000102F00270E291F29000F111F8ED06801E7
:107EB0006FC0863521F484E090D080E0DECF843638
:107EC00009F040C070D06FD0082F6DD080E0C81688
:107ED00080E7D80618F4F601B7BEE895C0E0D1E017
:107EE00062D089930C17E1F7F0E0CF16F0E7DF06D8
:107EF00018F0F601B7BEE89568D007B600FCFDCFD4
:107F0000A601A0E0B1E02C9130E011968C91119780
:107F100090E0982F8827822B932B1296FA010C0160
:107F200087BEE89511244E5F5F4FF1E0A038BF0790
:107F300051F7F601A7BEE89507B600FCFDCF97BE46
:107F4000E89526C08437B1F42ED02DD0F82E2BD052
:107F50003CD0F601EF2C8F010F5F1F4F84911BD097
:107F6000EA94F801C1F70894C11CD11CFA94CF0C13
:107F7000D11C0EC0853739F428D08EE10CD085E9AC
:107F80000AD08FE07ACF813511F488E018D01DD067
:107F900080E101D065CF982F8091C00085FFFCCF94
:107FA0009093C60008958091C00087FFFCCF809118
:107FB000C00084FD01C0A8958091C6000895E0E648
:107FC000F0E098E1908380830895EDDF803219F02E
:107FD00088E0F5DFFFCF84E1DECF1F93182FE3DFCA
:107FE0001150E9F7F2DF1F91089580E0E8DFEE27F6
:047FF000FF270994CA
:027FFE00040479
:0400000300007E007B
:00000001FF
